{
  "_format": "hh-sol-artifact-1",
  "contractName": "StoreV1",
  "sourceName": "contracts/StoreV1.sol",
  "abi": [
    {
      "inputs": [
        {
          "internalType": "address",
          "name": "_coreOwner",
          "type": "address"
        }
      ],
      "stateMutability": "nonpayable",
      "type": "constructor"
    },
    {
      "stateMutability": "payable",
      "type": "fallback"
    },
    {
      "inputs": [
        {
          "internalType": "uint256",
          "name": "_Id",
          "type": "uint256"
        },
        {
          "internalType": "address",
          "name": "_user",
          "type": "address"
        },
        {
          "internalType": "string",
          "name": "_assetType",
          "type": "string"
        },
        {
          "internalType": "string",
          "name": "_assetName",
          "type": "string"
        },
        {
          "internalType": "string",
          "name": "_action",
          "type": "string"
        },
        {
          "internalType": "string",
          "name": "_description",
          "type": "string"
        }
      ],
      "name": "addEvent",
      "outputs": [],
      "stateMutability": "nonpayable",
      "type": "function"
    },
    {
      "inputs": [
        {
          "internalType": "address",
          "name": "_user",
          "type": "address"
        }
      ],
      "name": "addUser",
      "outputs": [],
      "stateMutability": "nonpayable",
      "type": "function"
    },
    {
      "inputs": [
        {
          "internalType": "uint256",
          "name": "",
          "type": "uint256"
        }
      ],
      "name": "events",
      "outputs": [
        {
          "internalType": "uint256",
          "name": "Id",
          "type": "uint256"
        },
        {
          "internalType": "address",
          "name": "user",
          "type": "address"
        },
        {
          "internalType": "string",
          "name": "assetType",
          "type": "string"
        },
        {
          "internalType": "string",
          "name": "assetName",
          "type": "string"
        },
        {
          "internalType": "string",
          "name": "action",
          "type": "string"
        },
        {
          "internalType": "string",
          "name": "description",
          "type": "string"
        }
      ],
      "stateMutability": "view",
      "type": "function"
    },
    {
      "inputs": [],
      "name": "getEventsLength",
      "outputs": [
        {
          "internalType": "uint256",
          "name": "",
          "type": "uint256"
        }
      ],
      "stateMutability": "view",
      "type": "function"
    },
    {
      "inputs": [
        {
          "internalType": "address",
          "name": "_user",
          "type": "address"
        }
      ],
      "name": "removeUser",
      "outputs": [],
      "stateMutability": "nonpayable",
      "type": "function"
    },
    {
      "inputs": [
        {
          "internalType": "address",
          "name": "",
          "type": "address"
        }
      ],
      "name": "users",
      "outputs": [
        {
          "internalType": "bool",
          "name": "",
          "type": "bool"
        }
      ],
      "stateMutability": "view",
      "type": "function"
    },
    {
      "stateMutability": "payable",
      "type": "receive"
    }
  ],
  "bytecode": "0x608060405234801561001057600080fd5b50604051610bb1380380610bb183398101604081905261002f9161006d565b600080546001600160a01b0319166001600160a01b03928316178082559091168152600160208190526040909120805460ff1916909117905561009b565b60006020828403121561007e578081fd5b81516001600160a01b0381168114610094578182fd5b9392505050565b610b07806100aa6000396000f3fe6080604052600436106100695760003560e01c80639857518811610043578063985751881461012d578063a87430ba1461014d578063ae8c24bc1461017a57610070565b80630b791430146100b0578063421b2d8b146100eb57806347fc216e1461010b57610070565b3661007057005b3360009081526001602081905260409091205460ff161515146100ae5760405162461bcd60e51b81526004016100a5906109ab565b60405180910390fd5b005b3480156100bc57600080fd5b506100d06100cb3660046107d9565b61019a565b6040516100e296959493929190610a11565b60405180910390f35b3480156100f757600080fd5b506100ae6101063660046107b8565b61040d565b34801561011757600080fd5b5061012061045e565b6040516100e29190610a08565b34801561013957600080fd5b506100ae6101483660046107b8565b610464565b34801561015957600080fd5b5061016d6101683660046107b8565b6104af565b6040516100e291906108fd565b34801561018657600080fd5b506100ae6101953660046107f1565b6104c4565b600281815481106101aa57600080fd5b60009182526020909120600690910201805460018201546002830180549294506001600160a01b0390911692916101e090610a80565b80601f016020809104026020016040519081016040528092919081815260200182805461020c90610a80565b80156102595780601f1061022e57610100808354040283529160200191610259565b820191906000526020600020905b81548152906001019060200180831161023c57829003601f168201915b50505050509080600301805461026e90610a80565b80601f016020809104026020016040519081016040528092919081815260200182805461029a90610a80565b80156102e75780601f106102bc576101008083540402835291602001916102e7565b820191906000526020600020905b8154815290600101906020018083116102ca57829003601f168201915b5050505050908060040180546102fc90610a80565b80601f016020809104026020016040519081016040528092919081815260200182805461032890610a80565b80156103755780601f1061034a57610100808354040283529160200191610375565b820191906000526020600020905b81548152906001019060200180831161035857829003601f168201915b50505050509080600501805461038a90610a80565b80601f01602080910402602001604051908101604052809291908181526020018280546103b690610a80565b80156104035780601f106103d857610100808354040283529160200191610403565b820191906000526020600020905b8154815290600101906020018083116103e657829003601f168201915b5050505050905086565b6000546001600160a01b031633146104375760405162461bcd60e51b81526004016100a590610908565b6001600160a01b03166000908152600160208190526040909120805460ff19169091179055565b60025490565b6000546001600160a01b0316331461048e5760405162461bcd60e51b81526004016100a590610976565b6001600160a01b03166000908152600160205260409020805460ff19169055565b60016020526000908152604090205460ff1681565b3360009081526001602081905260409091205460ff161515146104f95760405162461bcd60e51b81526004016100a5906109ab565b600254861461051a5760405162461bcd60e51b81526004016100a59061093f565b6040805160c0810182528781526001600160a01b038088166020808401918252938301888152606084018890526080840187905260a0840186905260028054600181018255600091909152845160069091027f405787fa12a823e0f2b7631cc41b3ba8828b3321ca811111fa75cd3aa3bb5ace810191825592517f405787fa12a823e0f2b7631cc41b3ba8828b3321ca811111fa75cd3aa3bb5acf84018054919095167fffffffffffffffffffffffff0000000000000000000000000000000000000000909116179093555180519394859461061c937f405787fa12a823e0f2b7631cc41b3ba8828b3321ca811111fa75cd3aa3bb5ad001929091019061067c565b506060820151805161063891600384019160209091019061067c565b506080820151805161065491600484019160209091019061067c565b5060a0820151805161067091600584019160209091019061067c565b50505050505050505050565b82805461068890610a80565b90600052602060002090601f0160209004810192826106aa57600085556106f0565b82601f106106c357805160ff19168380011785556106f0565b828001600101855582156106f0579182015b828111156106f05782518255916020019190600101906106d5565b506106fc929150610700565b5090565b5b808211156106fc5760008155600101610701565b80356001600160a01b038116811461072c57600080fd5b919050565b600082601f830112610741578081fd5b813567ffffffffffffffff8082111561075c5761075c610abb565b604051601f8301601f19908116603f0116810190828211818310171561078457610784610abb565b8160405283815286602085880101111561079c578485fd5b8360208701602083013792830160200193909352509392505050565b6000602082840312156107c9578081fd5b6107d282610715565b9392505050565b6000602082840312156107ea578081fd5b5035919050565b60008060008060008060c08789031215610809578182fd5b8635955061081960208801610715565b9450604087013567ffffffffffffffff80821115610835578384fd5b6108418a838b01610731565b95506060890135915080821115610856578384fd5b6108628a838b01610731565b94506080890135915080821115610877578384fd5b6108838a838b01610731565b935060a0890135915080821115610898578283fd5b506108a589828a01610731565b9150509295509295509295565b60008151808452815b818110156108d7576020818501810151868301820152016108bb565b818111156108e85782602083870101525b50601f01601f19169290920160200192915050565b901515815260200190565b6020808252601d908201527f4f6e6c7920636f7265206f776e65722063616e2061646420757365722e000000604082015260600190565b6020808252600c908201527f49442069732077726f6e67210000000000000000000000000000000000000000604082015260600190565b6020808252818101527f4f6e6c7920636f7265206f776e65722063616e2072656d6f766520757365722e604082015260600190565b6020808252602b908201527f4f6e6c792073706563696669632075736572732063616e2063616c6c2074686960408201527f732066756e6374696f6e2e000000000000000000000000000000000000000000606082015260800190565b90815260200190565b60008782526001600160a01b038716602083015260c06040830152610a3960c08301876108b2565b8281036060840152610a4b81876108b2565b90508281036080840152610a5f81866108b2565b905082810360a0840152610a7381856108b2565b9998505050505050505050565b600281046001821680610a9457607f821691505b60208210811415610ab557634e487b7160e01b600052602260045260246000fd5b50919050565b634e487b7160e01b600052604160045260246000fdfea2646970667358221220ed32d6e286c30f08f83a7e4739ad4a7bd1e0ee94b5d40bbc97d1ed57c29f14bb64736f6c63430008010033",
  "linkReferences": {},
  "deployedLinkReferences": {}
}