{
  "_format": "hh-sol-artifact-1",
  "contractName": "Store",
  "sourceName": "contracts/Store.sol",
  "abi": [
    {
      "inputs": [
        {
          "internalType": "address",
          "name": "_core_owner",
          "type": "address"
        }
      ],
      "stateMutability": "nonpayable",
      "type": "constructor"
    },
    {
      "anonymous": false,
      "inputs": [
        {
          "indexed": true,
          "internalType": "address",
          "name": "caller",
          "type": "address"
        },
        {
          "indexed": true,
          "internalType": "uint256",
          "name": "assetId",
          "type": "uint256"
        },
        {
          "indexed": false,
          "internalType": "string",
          "name": "history",
          "type": "string"
        }
      ],
      "name": "AddHistory",
      "type": "event"
    },
    {
      "anonymous": false,
      "inputs": [
        {
          "indexed": false,
          "internalType": "address",
          "name": "user",
          "type": "address"
        }
      ],
      "name": "AddUser",
      "type": "event"
    },
    {
      "anonymous": false,
      "inputs": [
        {
          "indexed": true,
          "internalType": "address",
          "name": "owner",
          "type": "address"
        },
        {
          "indexed": true,
          "internalType": "address",
          "name": "operator",
          "type": "address"
        },
        {
          "indexed": true,
          "internalType": "bool",
          "name": "approved",
          "type": "bool"
        }
      ],
      "name": "Approve",
      "type": "event"
    },
    {
      "anonymous": false,
      "inputs": [
        {
          "indexed": true,
          "internalType": "address",
          "name": "owner",
          "type": "address"
        },
        {
          "indexed": false,
          "internalType": "uint256",
          "name": "assetId",
          "type": "uint256"
        }
      ],
      "name": "BurnFraction",
      "type": "event"
    },
    {
      "anonymous": false,
      "inputs": [
        {
          "indexed": true,
          "internalType": "address",
          "name": "from",
          "type": "address"
        },
        {
          "indexed": true,
          "internalType": "address",
          "name": "to",
          "type": "address"
        },
        {
          "indexed": true,
          "internalType": "uint256",
          "name": "assetId",
          "type": "uint256"
        },
        {
          "indexed": false,
          "internalType": "string",
          "name": "property",
          "type": "string"
        }
      ],
      "name": "Mint",
      "type": "event"
    },
    {
      "anonymous": false,
      "inputs": [
        {
          "indexed": true,
          "internalType": "address",
          "name": "owner",
          "type": "address"
        },
        {
          "indexed": false,
          "internalType": "uint256",
          "name": "assetId",
          "type": "uint256"
        },
        {
          "indexed": true,
          "internalType": "uint256",
          "name": "fractionedCount",
          "type": "uint256"
        }
      ],
      "name": "MintFraction",
      "type": "event"
    },
    {
      "anonymous": false,
      "inputs": [
        {
          "indexed": false,
          "internalType": "address",
          "name": "user",
          "type": "address"
        }
      ],
      "name": "RemoveUser",
      "type": "event"
    },
    {
      "anonymous": false,
      "inputs": [
        {
          "indexed": true,
          "internalType": "address",
          "name": "from",
          "type": "address"
        },
        {
          "indexed": true,
          "internalType": "address",
          "name": "to",
          "type": "address"
        },
        {
          "indexed": true,
          "internalType": "uint256",
          "name": "assetId",
          "type": "uint256"
        },
        {
          "indexed": false,
          "internalType": "uint256",
          "name": "fractionCount",
          "type": "uint256"
        }
      ],
      "name": "Transfer",
      "type": "event"
    },
    {
      "inputs": [
        {
          "internalType": "uint256",
          "name": "assetId",
          "type": "uint256"
        },
        {
          "internalType": "string",
          "name": "_oneHistory",
          "type": "string"
        }
      ],
      "name": "addHistory",
      "outputs": [],
      "stateMutability": "nonpayable",
      "type": "function"
    },
    {
      "inputs": [
        {
          "internalType": "address",
          "name": "_user",
          "type": "address"
        }
      ],
      "name": "addUser",
      "outputs": [],
      "stateMutability": "nonpayable",
      "type": "function"
    },
    {
      "inputs": [
        {
          "internalType": "address",
          "name": "operator",
          "type": "address"
        }
      ],
      "name": "approve",
      "outputs": [],
      "stateMutability": "nonpayable",
      "type": "function"
    },
    {
      "inputs": [
        {
          "internalType": "uint256",
          "name": "assetId",
          "type": "uint256"
        }
      ],
      "name": "burnAsset",
      "outputs": [],
      "stateMutability": "nonpayable",
      "type": "function"
    },
    {
      "inputs": [],
      "name": "core_owner",
      "outputs": [
        {
          "internalType": "address",
          "name": "",
          "type": "address"
        }
      ],
      "stateMutability": "view",
      "type": "function"
    },
    {
      "inputs": [],
      "name": "countOfAsset",
      "outputs": [
        {
          "internalType": "uint256",
          "name": "",
          "type": "uint256"
        }
      ],
      "stateMutability": "view",
      "type": "function"
    },
    {
      "inputs": [
        {
          "internalType": "uint256",
          "name": "assetId",
          "type": "uint256"
        },
        {
          "internalType": "uint256",
          "name": "fractionCount",
          "type": "uint256"
        }
      ],
      "name": "fractionAsset",
      "outputs": [],
      "stateMutability": "nonpayable",
      "type": "function"
    },
    {
      "inputs": [
        {
          "internalType": "uint256",
          "name": "assetId",
          "type": "uint256"
        },
        {
          "internalType": "uint256",
          "name": "id",
          "type": "uint256"
        }
      ],
      "name": "getAssetHistory",
      "outputs": [
        {
          "internalType": "string",
          "name": "",
          "type": "string"
        }
      ],
      "stateMutability": "view",
      "type": "function"
    },
    {
      "inputs": [
        {
          "internalType": "uint256",
          "name": "assetId",
          "type": "uint256"
        }
      ],
      "name": "getAssetHistoryLength",
      "outputs": [
        {
          "internalType": "uint256",
          "name": "",
          "type": "uint256"
        }
      ],
      "stateMutability": "view",
      "type": "function"
    },
    {
      "inputs": [
        {
          "internalType": "uint256",
          "name": "assetId",
          "type": "uint256"
        }
      ],
      "name": "getFractionedCount",
      "outputs": [
        {
          "internalType": "uint256",
          "name": "",
          "type": "uint256"
        }
      ],
      "stateMutability": "view",
      "type": "function"
    },
    {
      "inputs": [
        {
          "internalType": "address",
          "name": "from",
          "type": "address"
        },
        {
          "internalType": "address",
          "name": "to",
          "type": "address"
        }
      ],
      "name": "getFranctionalApprovals",
      "outputs": [
        {
          "internalType": "bool",
          "name": "",
          "type": "bool"
        }
      ],
      "stateMutability": "view",
      "type": "function"
    },
    {
      "inputs": [
        {
          "internalType": "uint256",
          "name": "assetId",
          "type": "uint256"
        },
        {
          "internalType": "address",
          "name": "owner",
          "type": "address"
        }
      ],
      "name": "getFranctionalBalances",
      "outputs": [
        {
          "internalType": "uint256",
          "name": "",
          "type": "uint256"
        }
      ],
      "stateMutability": "view",
      "type": "function"
    },
    {
      "inputs": [
        {
          "internalType": "uint256",
          "name": "assetId",
          "type": "uint256"
        }
      ],
      "name": "getProperty",
      "outputs": [
        {
          "internalType": "string",
          "name": "",
          "type": "string"
        }
      ],
      "stateMutability": "view",
      "type": "function"
    },
    {
      "inputs": [
        {
          "internalType": "uint256",
          "name": "id",
          "type": "uint256"
        }
      ],
      "name": "getTotalHistory",
      "outputs": [
        {
          "components": [
            {
              "internalType": "uint256",
              "name": "assetId",
              "type": "uint256"
            },
            {
              "internalType": "string",
              "name": "history",
              "type": "string"
            }
          ],
          "internalType": "struct Store.AssetHistory",
          "name": "",
          "type": "tuple"
        }
      ],
      "stateMutability": "view",
      "type": "function"
    },
    {
      "inputs": [],
      "name": "getTotalHistoryLength",
      "outputs": [
        {
          "internalType": "uint256",
          "name": "",
          "type": "uint256"
        }
      ],
      "stateMutability": "view",
      "type": "function"
    },
    {
      "inputs": [
        {
          "internalType": "address",
          "name": "from",
          "type": "address"
        },
        {
          "internalType": "address",
          "name": "to",
          "type": "address"
        }
      ],
      "name": "isApprovedOrOwner",
      "outputs": [
        {
          "internalType": "bool",
          "name": "",
          "type": "bool"
        }
      ],
      "stateMutability": "view",
      "type": "function"
    },
    {
      "inputs": [
        {
          "internalType": "address",
          "name": "to",
          "type": "address"
        },
        {
          "internalType": "uint256",
          "name": "assetId",
          "type": "uint256"
        },
        {
          "internalType": "string",
          "name": "property",
          "type": "string"
        }
      ],
      "name": "mintAsset",
      "outputs": [],
      "stateMutability": "nonpayable",
      "type": "function"
    },
    {
      "inputs": [
        {
          "internalType": "address",
          "name": "_user",
          "type": "address"
        }
      ],
      "name": "removeUser",
      "outputs": [],
      "stateMutability": "nonpayable",
      "type": "function"
    },
    {
      "inputs": [
        {
          "internalType": "address",
          "name": "from",
          "type": "address"
        },
        {
          "internalType": "address",
          "name": "to",
          "type": "address"
        },
        {
          "internalType": "uint256",
          "name": "assetId",
          "type": "uint256"
        },
        {
          "internalType": "uint256",
          "name": "fractionCount",
          "type": "uint256"
        }
      ],
      "name": "safeTransfer",
      "outputs": [],
      "stateMutability": "nonpayable",
      "type": "function"
    },
    {
      "inputs": [
        {
          "internalType": "uint256",
          "name": "",
          "type": "uint256"
        }
      ],
      "name": "totalHistory",
      "outputs": [
        {
          "internalType": "uint256",
          "name": "assetId",
          "type": "uint256"
        },
        {
          "internalType": "string",
          "name": "history",
          "type": "string"
        }
      ],
      "stateMutability": "view",
      "type": "function"
    },
    {
      "inputs": [
        {
          "internalType": "address",
          "name": "",
          "type": "address"
        }
      ],
      "name": "users",
      "outputs": [
        {
          "internalType": "bool",
          "name": "",
          "type": "bool"
        }
      ],
      "stateMutability": "view",
      "type": "function"
    }
  ],
  "bytecode": "0x608060405234801561001057600080fd5b5060405161179238038061179283398101604081905261002f9161006a565b600080546001600160a01b039092166001600160a01b031990921682178155908152600560205260409020805460ff19166001179055610098565b60006020828403121561007b578081fd5b81516001600160a01b0381168114610091578182fd5b9392505050565b6116eb806100a76000396000f3fe608060405234801561001057600080fd5b50600436106101775760003560e01c80638f08d44d116100d8578063dc1dd34e1161008c578063f2fd9c8811610066578063f2fd9c8814610309578063f8f39e3014610329578063ffb49e601461033c57610177565b8063dc1dd34e146102ce578063e078e9c8146102e3578063eeab6e34146102f657610177565b8063a87430ba116100bd578063a87430ba14610295578063d5fe3d4b146102a8578063daea85c5146102bb57610177565b80638f08d44d1461026f578063985751881461028257610177565b806350f8e2e01161012f5780637ec832e8116101145780637ec832e81461021b578063852fff1f1461023b57806389f4ef171461025c57610177565b806350f8e2e0146101f557806375236fe11461020857610177565b80632af3b565116101605780632af3b565146101ad57806332665ffb146101c2578063421b2d8b146101e257610177565b80630c17cc1e1461017c578063229b5c991461019a575b600080fd5b610184610344565b60405161019191906115fd565b60405180910390f35b6101846101a83660046110bd565b61034a565b6101c06101bb366004611050565b610374565b005b6101d56101d03660046110a5565b6104a4565b60405161019191906111af565b6101c06101f0366004610fbc565b610566565b6101846102033660046110a5565b6105fe565b6101c06102163660046110df565b610610565b61022e610229366004610fdd565b610781565b60405161019191906111a4565b61024e6102493660046110a5565b6107c6565b604051610191929190611606565b6101c061026a366004611124565b61087e565b6101c061027d3660046110a5565b61095d565b6101c0610290366004610fbc565b610a1c565b61022e6102a3366004610fbc565b610aa6565b61022e6102b6366004610fdd565b610abb565b6101c06102c9366004610fbc565b610ae9565b6102d6610b76565b6040516101919190611190565b6101846102f13660046110a5565b610b85565b6101d5610304366004611124565b610b97565b61031c6103173660046110a5565b610c64565b60405161019191906115d0565b6101c061033736600461100f565b610d49565b610184610e61565b60045490565b60008281526007602090815260408083206001600160a01b03851684529091529020545b92915050565b6001600160a01b0383166103a35760405162461bcd60e51b815260040161039a906114aa565b60405180910390fd5b60015482146103c45760405162461bcd60e51b815260040161039a906114df565b6000546001600160a01b03166103d8610e67565b6001600160a01b0316146103fe5760405162461bcd60e51b815260040161039a9061144d565b6001806000828254610410919061161f565b90915550506000828152600260209081526040909120825161043492840190610e6b565b506000828152600660209081526040808320600190819055600783528184206001600160a01b038816808652935281842055518492907f0a379200ca4d32ac7f1351005f51ef6d49dae15616e15e868f304fc5469e6d0a906104979086906111af565b60405180910390a4505050565b606060015482106104c75760405162461bcd60e51b815260040161039a906114df565b600082815260026020526040902080546104e09061164e565b80601f016020809104026020016040519081016040528092919081815260200182805461050c9061164e565b80156105595780601f1061052e57610100808354040283529160200191610559565b820191906000526020600020905b81548152906001019060200180831161053c57829003601f168201915b505050505090505b919050565b6000546001600160a01b031661057a610e67565b6001600160a01b0316146105a05760405162461bcd60e51b815260040161039a9061127c565b6001600160a01b03811660009081526005602052604090819020805460ff19166001179055517f93e8ef53fa1762269961bdc02811e560fa10787f7f2f9c13f74ddad8221614d2906105f3908390611190565b60405180910390a150565b60009081526006602052604090205490565b6005600061061c610e67565b6001600160a01b0316815260208101919091526040016000205460ff166106555760405162461bcd60e51b815260040161039a90611573565b60015482106106765760405162461bcd60e51b815260040161039a90611416565b6040805180820190915282815260208082018381526004805460018101825560009190915283517f8a35acfbc15ff81a39ae7d344fd709f28e8600b4aa8c65c6b64bfe7fe36bd19b60029092029182019081559151805185946106fd937f8a35acfbc15ff81a39ae7d344fd709f28e8600b4aa8c65c6b64bfe7fe36bd19c01920190610e6b565b505050600083815260036020908152604082208054600181018255908352918190208451610732939190910191850190610e6b565b508261073c610e67565b6001600160a01b03167f01466425d26e4be9b0563dc6cc9947c8d27c625edfb821aceb67ed90260c7a0c8460405161077491906111af565b60405180910390a3505050565b600061078d8284610abb565b806107b0575061079b610e67565b6001600160a01b0316826001600160a01b0316145b156107bd5750600161036e565b50600092915050565b600481815481106107d657600080fd5b600091825260209091206002909102018054600182018054919350906107fb9061164e565b80601f01602080910402602001604051908101604052809291908181526020018280546108279061164e565b80156108745780601f1061084957610100808354040283529160200191610874565b820191906000526020600020905b81548152906001019060200180831161085757829003601f168201915b5050505050905082565b610887826105fe565b6001146108a65760405162461bcd60e51b815260040161039a906111c2565b6108b2826101a8610e67565b6001146108d15760405162461bcd60e51b815260040161039a906113b9565b60008281526006602090815260408083208490556007909152812082916108f6610e67565b6001600160a01b0316815260208101919091526040016000205580610919610e67565b6001600160a01b03167f3bdd3c1b83c32a8c3bf88de6e751fc1cf411d594745a01d593749e00d074cb5d8460405161095191906115fd565b60405180910390a35050565b610969816101a8610e67565b610972826105fe565b1461098f5760405162461bcd60e51b815260040161039a906112d9565b60008181526006602090815260408083206001908190556007909252822090916109b7610e67565b6001600160a01b031681526020810191909152604001600020556109d9610e67565b6001600160a01b03167f30050b91635ffb03cea7e3d48d27dee0f07f5763e0acdba16657743aa643077982604051610a1191906115fd565b60405180910390a250565b6000546001600160a01b0316610a30610e67565b6001600160a01b031614610a565760405162461bcd60e51b815260040161039a90611516565b6001600160a01b03811660009081526005602052604090819020805460ff19169055517f0ad8e54ac59bf2d8a7a1474c1af503b593553cf4fcaaffdef04ab5249f89762b906105f3908390611190565b60056020526000908152604090205460ff1681565b6001600160a01b03918216600090815260086020908152604080832093909416825291909152205460ff1690565b600160086000610af7610e67565b6001600160a01b03908116825260208083019390935260409182016000908120918616808252919093529120805460ff191692151592909217909155600190610b3e610e67565b6001600160a01b03167faaf27816598688732a80b26fb3b6d0bc241c08f38a6d8ca2a0723f4835d593d660405160405180910390a450565b6000546001600160a01b031681565b60009081526003602052604090205490565b600082815260036020526040902080546060919083908110610bc957634e487b7160e01b600052603260045260246000fd5b906000526020600020018054610bde9061164e565b80601f0160208091040260200160405190810160405280929190818152602001828054610c0a9061164e565b8015610c575780601f10610c2c57610100808354040283529160200191610c57565b820191906000526020600020905b815481529060010190602001808311610c3a57829003601f168201915b5050505050905092915050565b610c6c610eef565b60048281548110610c8d57634e487b7160e01b600052603260045260246000fd5b906000526020600020906002020160405180604001604052908160008201548152602001600182018054610cc09061164e565b80601f0160208091040260200160405190810160405280929190818152602001828054610cec9061164e565b8015610d395780601f10610d0e57610100808354040283529160200191610d39565b820191906000526020600020905b815481529060010190602001808311610d1c57829003601f168201915b5050505050815250509050919050565b610d5a610d54610e67565b85610781565b610d765760405162461bcd60e51b815260040161039a90611336565b610d80828561034a565b811115610d9f5760405162461bcd60e51b815260040161039a9061121f565b60008281526007602090815260408083206001600160a01b038816845290915281208054839290610dd1908490611637565b909155505060008281526007602090815260408083206001600160a01b038716845290915281208054839290610e0890849061161f565b9250508190555081836001600160a01b0316856001600160a01b03167f9ed053bb818ff08b8353cd46f78db1f0799f31c9e4458fdb425c10eccd2efc4484604051610e5391906115fd565b60405180910390a450505050565b60015481565b3390565b828054610e779061164e565b90600052602060002090601f016020900481019282610e995760008555610edf565b82601f10610eb257805160ff1916838001178555610edf565b82800160010185558215610edf579182015b82811115610edf578251825591602001919060010190610ec4565b50610eeb929150610f09565b5090565b604051806040016040528060008152602001606081525090565b5b80821115610eeb5760008155600101610f0a565b80356001600160a01b038116811461056157600080fd5b600082601f830112610f45578081fd5b813567ffffffffffffffff80821115610f6057610f6061169f565b604051601f8301601f19908116603f01168101908282118183101715610f8857610f8861169f565b81604052838152866020858801011115610fa0578485fd5b8360208701602083013792830160200193909352509392505050565b600060208284031215610fcd578081fd5b610fd682610f1e565b9392505050565b60008060408385031215610fef578081fd5b610ff883610f1e565b915061100660208401610f1e565b90509250929050565b60008060008060808587031215611024578182fd5b61102d85610f1e565b935061103b60208601610f1e565b93969395505050506040820135916060013590565b600080600060608486031215611064578283fd5b61106d84610f1e565b925060208401359150604084013567ffffffffffffffff81111561108f578182fd5b61109b86828701610f35565b9150509250925092565b6000602082840312156110b6578081fd5b5035919050565b600080604083850312156110cf578182fd5b8235915061100660208401610f1e565b600080604083850312156110f1578182fd5b82359150602083013567ffffffffffffffff81111561110e578182fd5b61111a85828601610f35565b9150509250929050565b60008060408385031215611136578182fd5b50508035926020909101359150565b60008151808452815b8181101561116a5760208185018101518683018201520161114e565b8181111561117b5782602083870101525b50601f01601f19169290920160200192915050565b6001600160a01b0391909116815260200190565b901515815260200190565b600060208252610fd66020830184611145565b60208082526029908201527f4672616374696f6e3a2074686520617373657420697320616c7265616479206660408201527f72616374696f6e65640000000000000000000000000000000000000000000000606082015260800190565b60208082526031908201527f4672616374696f6e3a2066726f6d20646f206e6f74206861766520656e6f756760408201527f68206173736574206672616374696f6e73000000000000000000000000000000606082015260800190565b60208082526023908201527f53746f72653a204f6e6c7920636f726520757365722063616e2061646420757360408201527f6572730000000000000000000000000000000000000000000000000000000000606082015260800190565b60208082526033908201527f4672616374696f6e3a20746865206275726e6572206d7573742068617665206160408201527f6c6c206173736574206672616e6374696f6e7300000000000000000000000000606082015260800190565b60208082526041908201527f4672616374696f6e3a207468652063616c6c657220646f6573206e6f7420616c60408201527f6c6f77656420746f207472616e73666572206173736574206672616374696f6e60608201527f7300000000000000000000000000000000000000000000000000000000000000608082015260a00190565b6020808252602b908201527f4672616374696f6e3a206f6e6c79206f776e65722063616e206672616374696f60408201527f6e20746865206173736574000000000000000000000000000000000000000000606082015260800190565b60208082526017908201527f53746f72653a20696e76616c6964206173736574206964000000000000000000604082015260600190565b60208082526028908201527f53746f72653a206f6e6c7920636f7265206f776e65722063616e20637265617460408201527f6520617373657473000000000000000000000000000000000000000000000000606082015260800190565b6020808252818101527f4552433732313a206d696e7420746f20746865207a65726f2061646472657373604082015260600190565b60208082526017908201527f53746f72653a20696e76616c6964206173736574204944000000000000000000604082015260600190565b60208082526026908201527f53746f72653a204f6e6c7920636f726520757365722063616e2072656d6f766560408201527f2075736572730000000000000000000000000000000000000000000000000000606082015260800190565b60208082526021908201527f53746f72653a204f6e6c792075736572732063616e2061646420686973746f7260408201527f7900000000000000000000000000000000000000000000000000000000000000606082015260800190565b6000602082528251602083015260208301516040808401526115f56060840182611145565b949350505050565b90815260200190565b6000838252604060208301526115f56040830184611145565b6000821982111561163257611632611689565b500190565b60008282101561164957611649611689565b500390565b60028104600182168061166257607f821691505b6020821081141561168357634e487b7160e01b600052602260045260246000fd5b50919050565b634e487b7160e01b600052601160045260246000fd5b634e487b7160e01b600052604160045260246000fdfea2646970667358221220ab264dfaf6f0604f4bc1186b61ea9d50cdb97d2c150629cccbd76624018d27f864736f6c63430008010033",
  "linkReferences": {},
  "deployedLinkReferences": {}
}